:100000000C942F010C9460010C9460010C9460011D
:100010000C9460010C9460010C9460010C946001DC
:100020000C9460010C9460010C9460010C946001CC
:100030000C9460010C9460010C9460010C946001BC
:100040000C9460010C9460010C9460010C946001AC
:100050000C9460010C9460010C9460010C94E20417
:100060000C9460010C9460010C9460010C9460018C
:100070000C9460010C9460010C9460010C9460017C
:100080000C9460010C9460010C9460010C9460016C
:100090000C9460010C9460010C9460010C9460015C
:1000A0000C9460010C9460010C9460010C9460014C
:1000B0000C9460010C9460010C9460010C9460013C
:1000C0000C9460010C9460010C9460010C9460012C
:1000D0000C9460010C9460010C9460010C9460011C
:1000E0000C9460010C94A5010C94AE020C94A9012F
:1000F0000C9446070C94B3040C9481020C94920166
:100100000C94AF020C94B7010C94BB010C948A01BF
:100110000C9480010C948E010C9495010C94B30105
:100120000C9486010C949F010C94AD010C94C501B4
:100130000C94C0010C94C1010C949B01000021009F
:10014000240027002A002D003000330001010000A8
:10015000040107010A0100002200250028002B00ED
:100160002E003100340002010000050108010B01DE
:10017000000020002300260029002C002F00320060
:100180000001000003010601090105050505070539
:1001900008080808020202020A0A08080404040403
:1001A000010101010101010103030303030303032F
:1001B000040707070C0C0C0C0C0C0C0C02020202BE
:1001C00006060606060606060B0B0B0B0B0B0B0BA7
:1001D0000102102020080810204010204080020159
:1001E000020108040201010204081020408080403E
:1001F000201008040201800402018040201008043D
:1002000002010804020101020408102040800102DA
:1002100004081020408000000A0B02090C0D0E0893
:1002200007030401000000000000000000000000BF
:1002300000000000000000000000000000000000BE
:10024000000012111000000000000000000000007B
:10025000000000000000000000000000460711241C
:100260001FBECFEFD1E2DEBFCDBF00E00CBF12E07A
:10027000A0E0B2E0E0E2FFE000E00BBF02C00790C8
:100280000D92AC36B107D9F722E0ACE6B2E001C07E
:100290001D92A639B207E1F711E0CFE2D1E000E00C
:1002A00006C021970109802FFE010E948607CE32E9
:1002B000D10780E00807A9F70E942C050C948E074F
:1002C0000C9400008150823108F05AC0E82FF0E011
:1002D0008827E259FE4F8F4F0C9486078E019201BA
:1002E000800186018A01C00195019B019F01A50142
:1002F000A901AD01B301B701C001BB01C101C50135
:10030000809180008F778093800008958091800095
:100310008F7DF9CF80918000877FF5CF84B58F776F
:1003200084BD089584B58F7DFBCF8091B0008F7719
:100330008093B00008958091B0008F7DF9CF8091B7
:1003400090008F77809390000895809190008F7D2A
:10035000F9CF80919000877FF5CF8091A0008F77B3
:100360008093A00008958091A0008F7DF9CF8091A7
:10037000A000877FF5CF809120018F7780932001A7
:100380000895809120018F7DF9CF80912001877F92
:10039000F5CFCF93DF93282F30E0F901EA5EFD4FD0
:1003A0008491F901E053FE4FD491F901E657FE4FD5
:1003B000C491CC23A1F081110E946201EC2FF0E0E6
:1003C000EE0FFF1FE059FE4FA591B491EC91ED2384
:1003D00081E090E009F480E0DF91CF91089580E022
:1003E00090E0FACF1F93CF93DF93282F30E0F901ED
:1003F000EA5EFD4F8491F901E053FE4FD491F9017B
:10040000E657FE4FC491CC23A9F0162F81110E940C
:100410006201EC2FF0E0EE0FFF1FEA5AFE4FA591AC
:10042000B4918FB7F894EC91111108C0D095DE23E8
:10043000DC938FBFDF91CF911F910895DE2BF8CF12
:10044000CF93DF9390E0FC01E053FE4F2491865759
:100450009E4FFC0184918823C9F090E0880F991F7A
:10046000FC01E45CFE4FA591B491FC01EA5AFE4FF9
:10047000C591D49161110DC09FB7F8948C912095CE
:1004800082238C938881282328839FBFDF91CF917B
:100490000895623051F49FB7F8943C91822F809573
:1004A00083238C93E8812E2BEFCF8FB7F894EC91B8
:1004B0002E2B2C938FBFEACF3FB7F89480917A020E
:1004C00090917B02A0917C02B0917D0226B5A89B01
:1004D00005C02F3F19F00196A11DB11D3FBFBA2FD6
:1004E000A92F982F8827BC01CD01620F711D811D96
:1004F000911D42E0660F771F881F991F4A95D1F71B
:100500000895AF92BF92CF92DF92EF92FF920F9336
:100510001F93CF93DF936C017B018B01040F151F99
:10052000EB015E01AE18BF08C017D10759F0699101
:10053000D601ED91FC910190F081E02DC601199555
:10054000892B79F7C501DF91CF911F910F91FF9012
:10055000EF90DF90CF90BF90AF900895089590E016
:1005600080E008958F929F92AF92BF92CF92DF92D8
:10057000EF92FF920F931F93CF93DF93982E892EC4
:100580006B01D0E0C0E0560182E0C80ED11C60E0F3
:10059000F50180810E94F201E92CF82C10E000E0C6
:1005A000F7018081F2E0EF0EF11C0E94C901892B56
:1005B000E1F461E0F50180810E94F201FE01EE0F9D
:1005C000FF1FEC0FFD1FE050FE4FE00FF11F808179
:1005D000DF91CF911F910F91FF90EF90DF90CF901F
:1005E000BF90AF909F908F9008950F5F1F4F033083
:1005F0001105B1F661E0F601329780810E94F201A7
:100600002196C430D10509F0BECF80E0E1CF8F92B2
:100610009F92AF92BF920F931F93CF93DF93CDB76B
:10062000DEB7A1970FB6F894DEBF0FBECDBF19A2FB
:10063000423008F44AE08E010F5D1F4F842E912C4A
:10064000B12CA12CA50194010E946407E62FB901E9
:10065000CA01EA3044F5E05DD801EE938D01232B09
:10066000242B252B79F790E080E0109769F0FD01AD
:1006700001900020E9F73197AF014A1B5B0BBD01E8
:100680008EE792E00E948102A1960FB6F894DEBF39
:100690000FBECDBFDF91CF911F910F91BF90AF9053
:1006A0009F908F900895E95CD7CFFC0101900020C6
:1006B000E9F73197AF01481B590BBC018EE792E077
:1006C0000C948102CF93DF93EC0160E08E810E9455
:1006D000F20161E08E810E94F20160E08E810E9451
:1006E000F2018BE891E00197F1F7DF91CF91089546
:1006F000CF92DF92EF92FF920F931F93CF93DF93EE
:100700006C017C0187E0E80EF11CD0E0C0E0062F10
:1007100010E0B8010C2E02C0759567950A94E2F7B7
:100720006170F70181917F010E94F2012196C4302E
:10073000D10579F7C601DF91CF911F910F91FF90FD
:10074000EF90DF90CF900C946203CF92DF92EF9204
:10075000FF920F931F93CF93DF93EC01F62E642F3C
:100760008C810E94F2018D818F3F19F060E00E9420
:10077000F2010F2D10E08F8584FF25C06E0187E008
:10078000C80ED11CF12CE12CB8010E2C02C07595BD
:1007900067950A94E2F76170F60181916F010E94FA
:1007A000F201FFEFEF1AFF0A88E0E816F10461F7A3
:1007B000CE01DF91CF911F910F91FF90EF90DF90CD
:1007C000CF900C946203B80184E0759567958A9583
:1007D000E1F7CE010E9478036F2DCE01DF91CF911A
:1007E0001F910F91FF90EF90DF90CF900C947803C2
:1007F00040E0682F8EE792E00C94A503CF93DF933F
:10080000823029F490918D02986090938D028093AC
:1008100091021092920280E48093930280E180938F
:10082000940280E58093950261E0809182020E94AB
:100830002002809183028F3F19F061E00E94200224
:1008400061E0809184020E942002CEE7D2E09E0106
:100850002E57324080918D0284FD0BC084E090E0E1
:1008600021962817390744F461E08E810E94200206
:10087000EECF88E090E0F4CF8BE39DE00197F1F7B5
:1008800060E0809182020E94F20160E08091840227
:100890000E94F201809183028F3F19F060E00E9474
:1008A000F20180918D0284FD39C063E08EE792E011
:1008B0000E947803CBE4D6E4CE010197F1F763E020
:1008C0008EE792E00E9478032197F1F763E08EE7CC
:1008D00092E00E94780383E592E00197F1F762E0ED
:1008E0008EE792E00E94780380918D0280620E94E0
:1008F000F80384E080938E028CE00E94F80381E08C
:100900000E94F8038BE39FE10197F1F782E0809367
:100910008F0286E0DF91CF910C94F80380620E94F1
:10092000F8038BE496E40197F1F780918D028062E1
:100930000E94F80383E592E00197F1F780918D0220
:1009400080620E94F803D0CF90919102691710F055
:100950006FEF690FE62FF0E0E258FD4F9489890FA1
:1009600080680C94F80341E00E94A50381E090E0C8
:100970000895CF92DF92EF92FF926C01990FEE08EB
:10098000FF08F7FE16C041E06DE28EE792E00E949C
:10099000A50366277727CB016C197D098E099F096E
:1009A0004AE00E9407030196FF90EF90DF90CF90FE
:1009B00008954AE0C701B601FF90EF90DF90CF9015
:1009C0000C9407031F920F920FB60F9211242F93CE
:1009D0003F938F939F93AF93BF93809176029091B3
:1009E0007702A0917802B09179023091750223E0EC
:1009F000230F2D3758F50196A11DB11D20937502C7
:100A00008093760290937702A0937802B093790254
:100A100080917A0290917B02A0917C02B0917D023C
:100A20000196A11DB11D80937A0290937B02A09341
:100A30007C02B0937D02BF91AF919F918F913F91C6
:100A40002F910F900FBE0F901F90189526E8230F3F
:100A50000296A11DB11DD2CF789484B5826084BD69
:100A600084B5816084BD85B5826085BD85B58160B2
:100A700085BD80916E00816080936E001092810030
:100A800080918100826080938100809181008160EB
:100A900080938100809180008160809380008091AC
:100AA000B10084608093B1008091B0008160809338
:100AB000B0008091910082608093910080919100BC
:100AC000816080939100809190008160809390007C
:100AD0008091A10082608093A1008091A10081603B
:100AE0008093A1008091A00081608093A0008091FC
:100AF0002101826080932101809121018160809396
:100B000021018091200181608093200180917A00F1
:100B1000846080937A0080917A00826080937A006A
:100B200080917A00816080937A0080917A00806859
:100B300080937A001092C10061E08DE00E94200253
:100B400061E08CE00E94200261E08BE00E942002C4
:100B500061E083E00E94200261E084E00E942002C4
:100B6000C4E3D2E08881229660E00E94200222E065
:100B7000C834D207B9F762E088E10E94200262E03F
:100B800089E20E94200262E087E10E94200262E086
:100B900087E20E94200262E086E10E94200262E079
:100BA00085E20E942002C6E2D2E008E112E02EE2D5
:100BB000C22E22E0D22EF880229661E08F2D0E9474
:100BC000200261E08F2D0E94F201F801F0800E5F9B
:100BD0001F4F61E08F2D0E94200261E08F2D0E9447
:100BE000F201CC16DD0639F782E00E94FE0388E4AC
:100BF00092E00E9455030E945C026B017C0198EE1A
:100C0000892E93E0992EA12CB12C0E945C026C19C4
:100C10007D098E099F09683E734081059105A8F3FF
:100C2000F1E08F1A9108A108B10828EEC20E23E066
:100C3000D21EE11CF11C81149104A104B10429F716
:100C400081E00E94F8038BE39FE10197F1F7C0E098
:100C5000D0E0FF24F39484E3C82E82E0D82E10E085
:100C600000E0F6018081F2E0CF0ED11C0E94C901A4
:100C7000019721F410937402009373020F5F1F4FCA
:100C80000A30110571F72FB7F89480917602909190
:100C90007702A0917802B09179022FBF40916F0244
:100CA000509170026091710270917202841B950BD9
:100CB000A60BB70B893C9105A105B105B8F166E219
:100CC00072E08EE292E00E94B202182F68E172E0B8
:100CD00080E292E00E94B20290ED910F9A3008F00B
:100CE0006FC0812F110F990BC09790936E02809364
:100CF0006D02F0926C022FB7F89480917602909179
:100D00007702A0917802B09179022FBF80936F0291
:100D100090937002A0937102B093720260E08DE034
:100D20000E94A4048EE492E00E9455032091730275
:100D30003091740280916D0290916E0228173907EC
:100D40000CF069C061E08CE00E94F20160E08BE091
:100D50000E94F20161E08DE00E94200261E08DE0DE
:100D60000E94F20161E083E00E94F20160E084E011
:100D70000E94F20160E080E00E94A40486E592E017
:100D80000E94550380917302909174020E94B904ED
:100D900061E080E00E94A4048EE592E00E94550389
:100DA00080916D0290916E020E94B90486E692E0F5
:100DB0000E945503209709F44ECF0E9400004BCFAC
:100DC00090ED980F9A3008F0B1CF90916C0291118C
:100DD000ADCF082E000C990BC09790936E028093B4
:100DE0006D022FB7F8948091760290917702A091CE
:100DF0007802B09179022FBF80936F0290937002B6
:100E0000A0937102B093720260E08DE00E94A4048E
:100E100082E592E089CF60E082179307ACF48CE022
:100E20000E94F20161E08BE00E94F20161E08DE03E
:100E30000E94200261E08DE00E94F20160E083E008
:100E40000E94F20161E093CF8CE00E94F20160E029
:100E50008BE00E94F20161E08DE00E94200260E0E0
:100E60008DE00E94F20160E083E00E94F20160E008
:100E700084E00E94F20110926C0260E08DE00E941A
:100E8000A40487E692E00E94550374CFEEE7F2E0F7
:100E90001382128280E192E0918380838AE08483CE
:100EA0008FEF858389E0868388E0878387E080876A
:100EB00086E0818785E082871386148615861686EC
:100EC000178681E00C94FE03A1E21A2EAA1BBB1B1D
:100ED000FD010DC0AA1FBB1FEE1FFF1FA217B30706
:100EE000E407F50720F0A21BB30BE40BF50B661F1C
:100EF000771F881F991F1A9469F7609570958095E0
:100F000090959B01AC01BD01CF010895EE0FFF1F2D
:100F1000881F8BBF0790F691E02D1994F894FFCFAE
:100F20003132333435363738392A30230000000067
:100F3000B3048102AF02AE022B002D002F0031005E
:100F40002900270025001A001C001E0020001800A0
:100F50001700160036003700380039003A003B0011
:100F60003C003D003E003F0068656C6C6F0020490E
:100F70004E004F555400466C6F6F723A2000446526
:0C0F80007374203A200020202020000084
:00000001FF
