:100000000C9472000C9493000C9493000C94930045
:100010000C9493000C9493000C9493000C94930014
:100020000C9493000C9493000C9493000C94930004
:100030000C9493000C9493000C9493000C949300F4
:100040000C9493000C9493000C9493000C949300E4
:100050000C9493000C945A010C9493000C9493000C
:100060000C9493000C9493000C9493000C949300C4
:100070000C9493000C9493000C9493000C949300B4
:100080000C9493000C9493000C9493000C949300A4
:100090000C9493000C9493000C9493000C94930094
:1000A0000C9493000C9493000C9493000C94930084
:1000B0000C9493000C9493000C9493000C94930074
:1000C0000C9493000C9493000C9493000C94930064
:1000D0000C9493000C9493000C9493000C94930054
:1000E0000C94930011241FBECFEFD1E2DEBFCDBF31
:1000F00000E00CBF12E0A0E0B2E0EAEDFCE000E0BE
:100100000BBF02C007900D92A233B107D9F722E0CE
:10011000A2E3B2E001C01D92AF33B207E1F70E9443
:100120007F010C946B060C94000081110AC0809131
:100130000B01662321F0806480930B0108958F7B6F
:10014000FBCF813041F480910B01662311F0806177
:10015000F3CF8F7EF1CF823061F480910B01662363
:1001600011F08460E9CF8B7FE7CF80910B018E7F08
:10017000E3CF6623D1F380910B018160DDCF811144
:1001800006C0662311F0149A0895149808958130DA
:1001900031F4662311F0169A089516980895823066
:1001A00041F4662311F0479A0895479808954598B9
:1001B00008956623E1F3459A08959091020180FF26
:1001C00029C09062909302019091020181FF24C0A6
:1001D0009061909302019091020182FF1FC098608C
:1001E0009093020183FF1CC0739A80910201806486
:1001F0008093020185E08A95F1F700008091020169
:100200008F7B8093020187EC90E00197F1F700C0AB
:10021000000008959F7DD6CF9F7EDBCF977FE0CFF4
:100220007398E3CF0F931F93CF938C01F801C19183
:100230008F01CC2399F02C9A8C2F859585958595E7
:1002400085950E94DD008C2F8F700E94DD0087EC69
:1002500090E00197F1F700C00000E8CFCF911F9127
:100260000F910895CF93C82F2C9882958F700E947C
:10027000DD008C2F8F700E94DD008FE39FE10197DE
:10028000F1F700C00000CF910895CF93DF931F9244
:100290001F92CDB7DEB7198290E49A83FE01E60F74
:1002A000F11D9181890F80680F900F90DF91CF91A0
:1002B0000C9432011F920F920FB60F9211248F935C
:1002C0009F93AF93BF938091320290913302A0919C
:1002D0003402B09135020196A11DB11D8093320206
:1002E00090933302A0933402B0933502BF91AF9143
:1002F0009F918F910F900FBE0F901F901895CF93E5
:10030000DF9300D000D000D01F92CDB7DEB784B10C
:10031000806E84B99D9A6D9A249A809101018867B4
:10032000809301016B9A10BA809107018C7F8093B2
:10033000070181B1887F81B982B1876082B981B1BB
:10034000806581B987B1806A87B982B1806582B9D9
:1003500088B1806A88B983B38A7F83BB389884B3B5
:10036000856084BB409A80910A01856580930A016B
:1003700080910B01856580930B0182E084BD83E051
:1003800085BD89EF87BD80916E00826080936E008D
:1003900078942FEF80E792E0215080409040E1F781
:1003A00000C000002C9883E00E94DD00EFE1FEE435
:1003B0003197F1F700C0000083E00E94DD0087E57F
:1003C00092E00197F1F700C0000083E00E94DD0099
:1003D000E7E5F2E03197F1F700C0000082E00E940B
:1003E000DD0088E20E9432018CE00E94320186E04A
:1003F0000E94320181E00E9432018FE39FE1019768
:10040000F1F700C000008CE092E00E9412019FEF23
:10041000E3EDF0E39150E040F040E1F700C0000070
:1004200081E00E94320149E0A42EB12C772473941C
:100430006624639452E2C52E52E0D52ECE01019679
:100440007C0190E080E02FB130E0082E02C03595AD
:1004500027950A94E2F720FF04C090933E02809310
:100460003D0201968830910571F72091060120FF29
:1004700004C090933E0280933D028091060181FF6B
:1004800004C0B0923E02A0923D02F89480913202E4
:1004900090913302A0913402B0913502789440914A
:1004A000390250913A0260913B0270913C02841BE8
:1004B000950BA60BB70B893C9105A105B10508F476
:1004C0008EC010E000E0502E60E0802F0E94BF0040
:1004D000912C812C982D80B1811024C082FB88271B
:1004E00080F98725882331F161E0852D0E94BF00C6
:1004F000C801880F991F080F191F00501E4F800E4A
:10050000911EF401508010E000E0402E60E0802F4A
:100510000E949500912C812C982D81101EC082B3D1
:10052000809522C0913021F4869588258170DACF9C
:100530008095FCCFFFEF8F1A9F0A23E0821691046B
:1005400049F661E0852D0E94BF000F5F1F4F043008
:10055000110509F0B8CF512CD6CF913009F08CC0DD
:1005600082B3869586958825817009F487C061E0FD
:10057000842D0E949500C801880F991F080F191F2C
:1005800000501E4F800E911EF401808190ED950D5C
:100590009A3008F087C0852D550C990BC097909321
:1005A00038028093370260923602F89480913202CA
:1005B00090913302A0913402B091350278948093E7
:1005C000390290933A02A0933B02B0933C0260E060
:1005D0008DE00E94450182E192E00E94120120918B
:1005E0003D0230913E0280913702909138022817E7
:1005F00039070CF081C02F9A2E9A2D98759AA598DC
:1006000060E080E00E9445018AE192E00E941201D0
:1006100080913E028F9380913D028F93DF92CF9223
:10062000FF92EF920E949503C7010E9412018FE290
:1006300092E00E94120161E080E00E94450185E2A3
:1006400092E00E941201809138028F9380913702CC
:100650008F93DF92CF92FF92EF920E949503C70192
:100660000E9412018DE292E00E9412010FB6F894EE
:10067000DEBF0FBECDBFE5CE86B152CFFFEF8F1AE2
:100680009F0A23E08216910409F046CF61E0842D91
:100690000E9495000F5F1F4F0430110509F035CF00
:1006A00080E074CF90ED980F9A3008F098CF909139
:1006B0003602911194CF082E000C990BC09790939D
:1006C000380280933702F89480913202909133027D
:1006D000A0913402B09135027894809339029093BE
:1006E0003A02A0933B02B0933C0260E08DE00E948E
:1006F000450186E192E071CF8217930734F42F9A77
:100700002E982D9A7598A59A7BCF2F982E982D9874
:100710007598A5981092360260E08DE00E94450120
:100720008EE292E00E9412016BCF0F931F93CF9342
:10073000DF93CDB7DEB72E970FB6F894DEBF0FBEAE
:10074000CDBF0E891F8986E08C831A8309838FEFC2
:100750009FE79E838D83AE01465E5F4F688D798DE6
:10076000CE0101960E94C5032F813885020F131F09
:10077000F80110822E960FB6F894DEBF0FBECDBFE3
:10078000DF91CF911F910F9108952F923F924F9239
:100790005F926F927F928F929F92AF92BF92CF9211
:1007A000DF92EF92FF920F931F93CF93DF9300D0CE
:1007B00000D000D01F921F92CDB7DEB77C013B0165
:1007C0008A01FC0117821682838181FFDDC1CE017F
:1007D00001965C01F7019381F30193FD859193FFED
:1007E00081913F01882309F453C1853239F493FD87
:1007F000859193FF81913F01853229F4B70190E003
:100800000E94DD05E7CF912C212C312CFFE1F3155F
:1008100038F08B3211F190F4803209F1833229F1F2
:1008200037FC3CC020ED280F2A3050F536FE20C0A2
:100830008AE0989E200D1124922E06C08D3291F0F0
:10084000803371F7689430F8F30193FD859193FF3D
:1008500081913F018111DACF21C0689431F8689409
:1008600032F8F2CF689433F8EFCF689434F8ECCFD5
:10087000EAE02E9E200D1124222E689435F8E4CF54
:100880008E3229F436FC04C1689436F8DDCF8C36FC
:1008900019F4689437F8D8CF8836B1F2982F9F7D35
:1008A00095549330E0F08336A1F18337C1F183355D
:1008B00009F063C02801F2E04F0E511CF801C0801E
:1008C000D180692D70E036FC02C06FEF7FEFC6016A
:1008D0000E94C7054C01689437F882010AC00C5F7A
:1008E0001F4FFFE3F98388248394912C6501E894DA
:1008F00037F833FE2DC0522C8114910471F5552028
:1009000009F468CFB70180E290E00E94DD055A94B7
:10091000F6CFF801808189830E5F1F4FE4CF280155
:10092000F2E04F0E511CF801C080D180692D70E0BB
:1009300036FC02C06FEF7FEFC6010E94D2054C016A
:100940008201D5CFB70180E290E00E94DD052A94B4
:100950002814190409F0B0F7CECFF60137FC8591C1
:1009600037FE81916F01B70190E00E94DD055110C3
:100970005A94F1E08F1A9108BFCF843619F0893666
:1009800009F077C0F80137FE6BC060817181828108
:1009900093810C5F1F4FF32DFF763F2E97FF09C009
:1009A00090958095709561957F4F8F4F9F4F68947C
:1009B00037F82AE030E0A5010E940D06C82ECA18BB
:1009C0008C2C432C36FE0CC0E89440F8C91440F43B
:1009D00034FE05C032FC03C0F32DFE7E4F2E892C61
:1009E00044FEAAC0FE01EC0DF11D8081803309F0A8
:1009F0009CC0242D297E422E842D8870582E43FCC5
:100A0000AAC040FEA4C09C2C821418F42C0C922C7A
:100A1000981844FEA6C0B70180E390E00E94DD056F
:100A200042FE09C088E790E041FE02C088E590E000
:100A3000B7010E94DD05C91408F49FC0CA94D12CE7
:100A40009FEFC91AD90ACA0CDB1CF60182916F010B
:100A5000B70190E00E94DD05AC14BD04B1F74FCFA3
:100A600060817181072E000C880B990B0E5F1F4F60
:100A700092CFD32CE894D4F82AE030E08537E1F126
:100A8000232D297FD22E8F36A9F1F0F4883551F12C
:100A9000F701868197812B960FB6F894DEBF0FBEC3
:100AA000CDBFDF91CF911F910F91FF90EF90DF901D
:100AB000CF90BF90AF909F908F907F906F905F90FE
:100AC0004F903F902F900895803749F0883701F775
:100AD000D4FE02C06894D2F820E130E00DC06894E2
:100AE000D4F8F6CF34FE03C0822F8660D82E20E1E2
:100AF00032E002C028E030E0F801D7FE0FC060818C
:100B00007181828193810C5F1F4FA5010E940D06A8
:100B1000C82ECA183D2CE89437F852CF60817181F5
:100B200090E080E00E5F1F4FF0CF42FC02C0839444
:100B300063CF8394839460CF842D867809F45CCF4F
:100B4000F6CFB70180E290E00E94DD058394821425
:100B5000C0F3512C5ECF522C5818821408F459CF90
:100B6000F8CF842D867809F466CF8BE241FE80E2CF
:100B700047FC8DE2B70190E05CCFB70180E390E0E5
:100B80000E94DD059A9457CF8FEF9FEF84CFFC0131
:100B90000590615070400110D8F7809590958E0FA8
:100BA0009F1F0895FC016150704001900110D8F71B
:100BB000809590958E0F9F1F08950F931F93CF934D
:100BC000DF93182F092FEB018B8181FD09C01FEFE7
:100BD0000FEF812F902FDF91CF911F910F910895EB
:100BE00082FF14C02E813F818C819D812817390797
:100BF0003CF4E881F981CF010196998388831083C1
:100C00008E819F8101969F838E83E3CFE885F9854E
:100C1000812F1995892BA1F3DACFFA01AA27283061
:100C200051F1203181F1E8946F936E7F6E5F7F4FB9
:100C30008F4F9F4FAF4FB1E03ED0B4E03CD0670F35
:100C4000781F891F9A1FA11D680F791F8A1F911D88
:100C5000A11D6A0F711D811D911DA11D20D009F4D8
:100C600068943F912AE0269F11243019305D31931A
:100C7000DEF6CF010895462F4770405D4193B3E003
:100C80000FD0C9F7F6CF462F4F70405D4A3318F0AA
:100C9000495D31FD4052419302D0A9F7EACFB4E05B
:100CA000A6959795879577956795BA95C9F7009713
:100CB0006105710508959B01AC010A2E06945795B4
:100CC000479537952795BA95C9F7620F731F841F0B
:0A0CD000951FA01D0895F894FFCFB2
:100CDA003132333435363738392A302368656C6C0B
:100CEA006F0020494E004F555400466C6F6F723AA0
:100CFA00200025640044657374203A2000202020D7
:020D0A002000C7
:00000001FF
